:020000040800F2
:10000000A83000202D020008774400087B0B000870
:1000100075440008B1070008A15200080000000064
:10002000000000000000000000000000D34C0008A9
:10003000B30700080000000083490008954D000840
:10004000470200084702000847020008470200086C
:100050004702000847020008B507000847020008E9
:1000600075080008AD080008E50800084702000808
:10007000470200084702000847020008470200083C
:10008000470200084702000847020008470200082C
:10009000470200084702000847020008470200081C
:1000A000470200084702000847020008470200080C
:1000B00047020008E94D0008914E00084702000879
:1000C00047020008470200084702000847020008EC
:1000D00047020008055100084702000847020008CF
:1000E00031080008470200084702000847020008DC
:1000F00047020008470200084702000847020008BC
:100100004702000847020008CD4E000847020008D9
:100110004702000847020008554F00084702000840
:10012000470200084702000847020008470200088B
:1001300000F002F800F06BF80AA090E8000C82448E
:100140008344AAF10107DA4501D100F060F8AFF26B
:10015000090EBAE80F0013F0010F18BFFB1A43F0A5
:1001600001031847BC9B0000DC9B00000A444FF0D1
:10017000000C10F8013B13F0070408BF10F8014B06
:100180001D1108BF10F8015B641E05D010F8016B4B
:10019000641E01F8016BF9D113F0080F1EBF10F8AF
:1001A000014BAD1C0C1B09D16D1E58BF01F801CBD2
:1001B000FAD505E014F8016B01F8016B6D1EF9D555
:1001C0009142D6D37047000000230024002500266A
:1001D000103A28BF78C1FBD8520728BF30C148BFAA
:1001E0000B607047642900F09D80752900F09A80AB
:1001F000782900F0D380632900F07082732900F021
:100200007582002070471FB51FBD10B510BD00F0EE
:100210009FFA1146FFF7F7FF05F0ACFC00F0BDFABE
:1002200003B4FFF7F2FF03BC05F042F8094880472A
:1002300009480047FEE7FEE7FEE7FEE7FEE7FEE7C8
:10024000FEE7FEE7FEE7FEE704480549034A054BE3
:1002500070470000994D000831010008A82C0020CB
:10026000A8300020A82C0020704700000FB40449DB
:1002700010B503AA029800F03DFA10BC5DF814FB1B
:100280004000002070B5044685690068C10601D5AC
:10029000302600E02026C00707D070BDD4E9012138
:1002A00030469047206A401C20626D1EF6D570BD16
:1002B00070B5044685690078C00707D170BDD4E9E0
:1002C000012120209047206A401C20626D1EF6D537
:1002D00070BD70B50C460546012A05D02878800609
:1002E00000D5EA69002302E0012305E05B1C93428C
:1002F00002D2E05C0028F9D1A869E618C01AA8610A
:10030000286A184428622846FFF7BCFF04E0D5E9B4
:10031000012114F8010B9047B442F8D32846FFF7A7
:10032000C7FF70BD2DE9F04106460024106875290D
:10033000314616A510D0AFF30080002802DA404203
:1003400013A507E031688A0701D512A502E0490725
:1003500004D511A5012401E0AFF3008000210A2299
:1003600006F1240709E0B0FBF2FCB0FBF2F302FB5C
:100370001C00303078541846491C0028F3D123461D
:100380002A463046BDE8F04100F045B900000000C3
:100390002D0000002B0000002000000070B5044676
:1003A0000D4621461068AFF300802188090502D56B
:1003B0000F4A7A4402E00E4A7A440E32002104F1D8
:1003C000240305E000F00F060009965D5E54491C09
:1003D0000028F7D120780023000704D5702D02D023
:1003E00009B1022311322046BDE8704000F013B974
:1003F000289800002DE9F05F894604464FF0000A76
:10040000DFF874B1FB44C0F820A02046E1688847BB
:10041000002874D0252806D0D4E901219047206A0D
:10042000401C2062F1E700265F462046E1688847CD
:100430002028054607DB312D05D2781910F8200C4D
:1004400008B10643F1E7B00701D526F00406C4F869
:100450001CA00027C4F818A02A2D09D0284604F0B3
:1004600020FF38B304EB8708303DC8F8185019E076
:1004700059F8041B204604EB87029161E168884724
:10048000012F054618D1E069002820DA26F0200661
:100490001DE0D8F8180000EB800005EB4000303874
:1004A000C8F818002046E1688847054604F0F9FEC0
:1004B0000028EED1012F0AD02E2D08D12046E16868
:1004C00088477F1C0546022F46F02006C4DBA06942
:1004D000002803DA404246F00106A061F00701D08F
:1004E00026F010066C2D0BD0682D09D04C2D39D07C
:1004F0006A2D35D0742D35D07A2D33D016E038E002
:10050000E1682F4620468847B842054609D16C2F3E
:1005100026D04FF48060E1680643204688470546B0
:1005200004E06C2F1AD04FF4807006430DB3A5F190
:100530004100192802D8203546F400664A4629466B
:10054000204626604E46FFF74DFE80B101280BD0B5
:10055000F61D26F0070000F1080956E74020E4E701
:100560008020D8E70020D6E706F104094DE72846A9
:1005700052E7206ABDE8F09FFE9700004FF00002AE
:100580000429C0F0128010F0030C00F01B80CCF1A5
:10059000040CBCF1020F18BF00F8012BA8BF20F813
:1005A000022BA1EB0C0100F00DB85FEAC17C24BF67
:1005B00000F8012B00F8012B48BF00F8012B704711
:1005C0004FF0000200B5134694469646203922BFEC
:1005D000A0E80C50A0E80C50B1F12001BFF4F7AF37
:1005E000090728BFA0E80C5048BF0CC05DF804EB19
:1005F000890028BF40F8042B08BF704748BF20F887
:10060000022B11F0804F18BF00F8012B7047704784
:100610007047704770472DE9F0470D46994692465E
:10062000044600F124080168880604D5E06921F039
:100630001001216000E00120A84201DD471B00E01D
:100640000027A1697A1902EB0900081AA061207835
:10065000C00602D42046FFF715FE002608E0D4E9C4
:1006600001211AF806009047206A401C761C20627F
:100670004E45F4DB2078C0060AD52046FFF702FE7F
:1006800006E0D4E9012130209047206A401C206216
:10069000381EA7F10107F4DC07E0D4E9012118F8BE
:1006A00005009047206A401C2062281EA5F1010524
:1006B000F3DC2046FFF7FCFD2078000602D502207F
:1006C000BDE8F0870120FBE710B5436913B1AFF334
:1006D000008001E0FFF7FDFD012010BD127800F160
:1006E00024010A7000224A700122EDE711684FF0E0
:1006F000FF32E9E7074B70B50D467B4400F011F877
:100700000446284600F020F810B14FF0FF3070BDCD
:10071000204670BD1B4E000001694A1C026108782A
:10072000704700B58FB0CDE9013100210591054931
:100730007944CDE9031011466846FFF75BFE0FB020
:1007400000BD0000E5FFFFFF007B00F08000704768
:10075000754600F029F8AE4605006946534620F07C
:100760000700854618B020B5FFF76EFDBDE82040B4
:100770004FF000064FF000074FF000084FF0000B5D
:1007800021F00701AC46ACE8C009ACE8C009ACE810
:10079000C009ACE8C0098D4670470446AFF300803D
:1007A0002046FFF73DFD000000487047482C002020
:1007B000FEE7704710B50A2004F07AFE01210948CF
:1007C00000F0D0F9012806D10749D1F8A00138B1CD
:1007D0000020C1F8A001BDE81040012000F09EB843
:1007E0000120F6E700080140008021423EB50B21C0
:1007F000012000F055F94FF40060002400908DF8BE
:10080000044008208DF8050001258DF80650684643
:1008100000F09AF828208DF808008DF809408DF82E
:100820000A408DF80B5002A803F026FE3EBD0000E2
:1008300010B54FF40064204600F076F801280DD181
:10084000094A0020C2F8BC010121C2F8BC110748C6
:10085000C0F8A81106480178491C01702046BDE87F
:10086000104000F05BB800000000224200802142EE
:100870002200002010B50A2004F01AFE04210948C5
:1008800000F070F930B90849D1F8940138B100206E
:10089000C1F89401BDE81040042000F03FB80120E9
:1008A000F6E70000001801400080214210B50A2040
:1008B00004F0FEFD0821094800F054F930B9084958
:1008C000D1F8940138B10020C1F89401BDE810407E
:1008D000082000F023B80120F6E7000000180140CE
:1008E0000000234210B50A2004F0E2FD102109485F
:1008F00000F038F930B90849D1F8940138B1002036
:10090000C1F89401BDE81040102000F007B80120A4
:10091000F6E700000018014000802142014908600C
:100920007047000014040140064A01460020126886
:10093000044B0A4014331B680B4202D0002A00D03B
:10094000012070470004014030B51A4A83790168DC
:1009500053B313688B431360111D0B680468A343E2
:100960000B60017911440B68046823430B60114B41
:10097000083319680468A14319601C1D21680568C3
:10098000A94321604179102905D011440A68006803
:1009900002430A6030BD196802681143196021687A
:1009A00000680143216030BD0079104402688A4329
:1009B000026030BD000401408000A0F1C040002969
:1009C000016802D041F0010101E0024A11400160DA
:1009D00070470000FEFF0F0010B5D0E9011211436F
:1009E000D0E903231A431143426911438269114339
:1009F000C2691143026A1143426A1143826A114378
:100A0000C26A1143026B114302689200A2F1C04214
:100A100011608168082907D101688900A1F1C041EE
:100A20000A6842F040020A60416BD1E9002342EAC1
:100A300003128B688C891B0243EA04431A430B8A16
:100A400042EA03520B7D896942EA03620A43016864
:100A50008900A1F1C0414A60C16AB1F5804F08D058
:100A600000686FF070418000A0F1C040C0F8041130
:100A700010BD816BD1E9002342EA03128B680C8A16
:100A80001B0243EA04531A430B7D896942EA03625D
:100A900000680A438000A0F1C040C0F8042110BDE6
:100AA00010B58A0721F003040649120F21440F23D1
:100AB0008C6893409C438C608B68904003438B60B0
:100AC00010BD000000000140F0B5CC78002204F019
:100AD0000F03E40601D58C7823430C784FF00F0CFC
:100AE00014F0FF0F4FF0010E1BD005680E880EFAB0
:100AF00002F42640A64210D196000CFA06F725EA29
:100B0000070703FA06F5CE783D43282E02D0482E7B
:100B100002D002E0446100E00461521C082AE5D3DF
:100B200005600A88FF2A1CD94468002202F10806E1
:100B30000EFA06F50E882E40AE420ED196000CFA43
:100B400006F7BC4303FA06F7CE783C43282E00D1C3
:100B50004561CE78482E00D10561521C082AE5D3A4
:100B60004460F0BD0246002092680A4200D0012095
:100B700070474161704701617047FEE741060748D1
:100B8000826942F0010282610548426822F0E06217
:100B9000426042680A434260704700000010024011
:100BA0000000014008B50121442003F003FF1C2090
:100BB000ADF8000048208DF8030069460648FFF7AD
:100BC00083FF0120ADF8000028208DF8030069465E
:100BD0000248FFF779FF08BD0018014000080140F6
:100BE0002DE9F0412E4C2F4F2F4D012608B12670D4
:100BF00001E02078A0B110212846FFF7B3FFB0B183
:100C000008212846FFF7AEFF88B104212846FFF7E8
:100C1000A9FF60B101213846FFF7A4FF012806D0E3
:100C200010212846FFF79EFF012824D035E00A2036
:100C300004F03EFC0020207010212846FFF792FFB0
:100C400080B108212846FFF78DFF70B104212846A6
:100C5000FFF788FF58B101213846FFF783FF0128CD
:100C600007D01AE00120BDE8F0810220FBE7032055
:100C7000F9E70420F7E708212846FFF773FF01286A
:100C80000BD104212846FFF76DFF012805D1012172
:100C90003846FFF767FF00B926700020E3E7000041
:100CA0001C00002000080140001801402DE9F0431D
:100CB000174F0646002438887D884543B888A0F53C
:100CC000D041043902D1B879012807D00021084663
:100CD00003F0A4F903F094FB0E4815E00020B8716E
:100CE0004FF02A09A7F80A904FF02B08A7F80C80BC
:100CF000014603F093F90120B871A7F80A80A7F81C
:100D00000C90E7E70680641CAC42FBD3BDE8F0839F
:100D1000A00100200008006C2DE9F04F4A492A2369
:100D20002B24898845F2105A4FF4305B4FF4285E2B
:100D30004FF448754FF0F00C49F241394FF4A07769
:100D400045F210364FF4F07280B13F484FF0010881
:100D5000494580F806800780A0F802C001D0B14262
:100D60003ED12C2505814381848157E036484FF0E0
:100D70000008494580F80680A0F800C0478006D0EA
:100D8000A1F5D04CBCF1040C01D0B1420CD12C2502
:100D900005814381A1F5D0438481043B01D0B14258
:100DA00044D10780428041E0514507D1A0F808B006
:100DB000A0F80AE04FF42C5181810EE0A1F5C8564D
:100DC000633E06D0222101812021418121218181A0
:100DD0002CE02C210181448183810280458025E023
:100DE000A1F5D04CBCF1040C09D051450BD1A0F8B1
:100DF00008B0A0F80AE04FF42C53838121E02C25A1
:100E00000581448109E0A1F5C85CBCF1630C12D0F6
:100E1000222303812123438120238381A1F5D04311
:100E2000043B01D0B14201D102804780BDE8F04FC0
:100E3000002003F01FB84FF02C0CA0F808C043812D
:100E4000848105804280E9E7A00100202DE9F04F70
:100E5000DFF80C81934642460B46B8F804500C0A62
:100E6000DFF800A19189060A5289A5F513470AF116
:100E70000209413F18D0A5F5A647103F14D0B7F599
:100E800000771CD04746A5F5C85CBE793F883F1A5D
:100E90007F1EBCF1630C27D0A5F5D04CBCF1040C2F
:100EA0003AD0012E4AD04AE0AAF800204A46A9F8D2
:100EB0000060C0B2A9F80000AAF800103AE0AAF851
:100EC0000020A9F80060521CAAF80020C0B2A9F8BE
:100ED0000000AAF80010A9F80040491CAAF8001068
:100EE000D8B2A9F8000033E006B9B8B2AAF80020D9
:100EF000050A4A46A9F80050C7B2A9F80070A9F837
:100F00000050C0B2A9F80000AAF80010A9F80040EB
:100F1000D8B2A9F800000DE0012E00D1B8B2AAF8AD
:100F20000020050A4A46A9F80050C0B2A9F80000FE
:100F3000AAF800101480D8B2108009E0B8B20146B7
:100F4000104603F067FAB8F80C00194603F062FA8D
:100F5000B8F80810AAF80010A9F800B0BDE8F08FA2
:100F6000A0010020FE07006C2DE9F8431F4D1F462D
:100F70008046AB88089EA3F5D040043802D1A879FA
:100F8000012807D0A2EB0800401C85B20C46DFF810
:100F9000609028E02B880846991A0024AC713A46E4
:100FA0002A24A3EB08036C812B27491E5B1EAF810B
:100FB00089B29BB20096FFF7D7FF0120A8716F811D
:100FC000AC81BDE8F8832146404603F027F803F0E2
:100FD00017FA0020494602E00E80401C80B2A84269
:100FE000FAD3641CA4B2BC42EDD9EAE7A001002008
:100FF0000008006C2DE9F04F01210E029FB0304631
:1010000003F0C0FC01214FF4B47003F0D3FC0127BE
:10101000ADF83C704FF010088DF83F8003248DF838
:101020003E400FA9FE48FFF74FFD4CF23370ADF87C
:101030003C0018258DF83F508DF83E400FA9F94827
:10104000FFF742FD4FF68070ADF83C008DF83F5041
:101050008DF83E400FA9F448FFF736FD41F201003C
:10106000ADF83C008DF83F508DF83E400FA9EF4899
:10107000FFF72AFD00200F21CDE918011A901B90DF
:101080001C901D901090CDE91104CDE91607149025
:1010900006211590CDE90010CDE9020813900490C7
:1010A0003101CDE908010690059007908900CDE94E
:1010B0000A010C9017A80D9010A80E906846FFF733
:1010C0008BFC01210620FFF777FC322004F0F0F9B9
:1010D000002002F0A5FED64DD64C49F24139A88039
:1010E00046F6040A45F2103B45F210574FF6FF78DA
:1010F000FF2804D3404502D0B0F5134F70D1D32060
:10110000208002F083FEA88002F080FEA88002F01A
:101110007DFE08EA00204146A88002F077FEAA88FA
:101120001043A88048455BD0BF20208002F06EFEAF
:10113000A88002F06BFEA88002F068FEA88002F092
:1011400065FE01EA0020A88002F060FEAA88104334
:10115000A880504544D0D420208002F057FEA880BB
:1011600002F054FEA88002F051FE01EA0020A8809F
:1011700002F04CFEAA881043A880584530D04FF4A6
:101180005A40208002F042FEA8804FF45B4020804D
:1011900002F03CFE01EA0020A8804FF45C40208071
:1011A00002F034FEAA881043A880B0F5004F7DD02D
:1011B000B84215D0A120208002F028FEA88002F0BD
:1011C00025FE01EA0020A88002F020FEA98808433D
:1011D000A0F5AE41A880613902D141F66310A88024
:1011E000A98895A0FFF742F8A888924DAD1C484504
:1011F0007ED1CF20208000202880C1202880302070
:101200002880ED2020806420288003202880122060
:10121000288081202880E8202080852028801020B8
:1012200028807A202880CB202080392028802C20FC
:101230002880002028803420288002202880F72061
:10124000208020202880EA202080002028802880FC
:10125000C02020801B202880C120208001202880E1
:10126000C5202080302028802880C7202080B720FB
:10127000288036202080482028803A202080552051
:101280002880B1202080002028801A202880B620C5
:1012900020800A202880A2202880F22020800020A0
:1012A0002880262020800120288000E051E0E020D6
:1012B00020800F2028802A202880282028800820AD
:1012C00028800E2028800820288054202880A920EB
:1012D0002880432028800A2028800F202880002092
:1012E0002880288028802880E1202080002000E0BD
:1012F00031E02880152028801720288007202880AA
:1013000011202880062028802B2028805620288025
:101310003C20288005202880102028800F2028804D
:101320003F20288028800F2028802B20208000202C
:1013300028802880012028803F2028802A202080A3
:101340000020288028802880EF20288011202080FD
:1013500084E0AF8044E7504576D1112020801420EE
:1013600004F0A6F8D0202080072028804220288082
:101370001D202880D1202080002028801A2028804D
:1013800009202880D2202080012028802220288047
:10139000C0202080102028803B202880002028802A
:1013A0000220288011202880C5202080032028804A
:1013B000C820208000202880252028802120288007
:1013C00005202880002028800A2028806520288089
:1013D0002520288077202880502028800F202880F2
:1013E00000202880F820208001202880FE202080F6
:1013F0000020288002202880202020803620208085
:10140000082028803A202080552028802B2020800A
:10141000002028802880012028803F20288014E098
:10142000000C014000140140001801400020014060
:10143000A0010020FE07006C204C43442049443AA0
:1014400025780D0A000000000EE02A2020800020F0
:101450002880288001202880DF202880782004F040
:1014600027F8292001F02DBC58457DD1ED202080A2
:1014700001202880FE202880EE202080DE20288089
:1014800021202880F120208001202880DF2020805A
:1014900010202880C42020808F202880C620208013
:1014A00000202880E220288028802880BF202080FB
:1014B000AA202880B02020800D20288000202880AD
:1014C0000D202880002028801120288000202880DE
:1014D00019202880002028802120288000202880B2
:1014E0002D202880002028803D2028800020288072
:1014F0005D202880002028805D2028800020288012
:10150000B120208080202880002028808B20288007
:10151000002028809620288000202880B22020806B
:101520000020288028800220288000202880032096
:10153000288000202880B320208000202880288058
:10154000288028802880288028802880288028805B
:10155000288028802880288028802880288028804B
:1015600028802880288000E0FEE3288028802880CA
:10157000B42020808B20288000202880962028807E
:1015800000202880A120288000202880B5202080ED
:101590000220288000202880032028800020288026
:1015A0000420288000202880B62020800020288069
:1015B0002880B72020800020288028803F20288095
:1015C000002028805E202880002028806420288039
:1015D000002028808C20288000202880AC202880B3
:1015E00000202880DC20288000202880702028808F
:1015F000002028809020288000202880EB20288050
:1016000000202880DC20288000202880B82020802E
:101610000020288028802880288028802880288012
:101620002880BA202080242028800020288028803C
:101630002880C1202080202028800020288054205D
:10164000288000202880FF20288000202880C220B9
:1016500020800A2028800020288004202880002064
:101660002880C32020803C202880002028803A2029
:1016700028800020288039202880002028803720DA
:101680002880002028803C202880002028803620C8
:1016900028800020288032202880002028802F20C9
:1016A0002880002028802C202880002028802920C5
:1016B00028800020288026202880002028802420C0
:1016C00028800020288024202880002028802320B3
:1016D0002880002028803C20288000202880362078
:1016E00028800020288032202880002028802F2079
:1016F0002880002028802C20288000202880292075
:10170000288000202880262028800020288024206F
:101710002880002028802420288000202880232062
:10172000288000202880C42020806220288000207B
:101730002880052028800020288084202880002000
:101740002880F02028800020288018202880002071
:101750002880A420288000202880182028800020AD
:10176000288050202880002028800C2028800020FD
:10177000288017202880002028809520288000209D
:101780002880F320288000202880E6202880002060
:101790002880C520208032202880002028804420F6
:1017A000288000202880652028800020288076203E
:1017B0002880002028808820288000202880C620BB
:1017C00020802020288000202880172028800020CA
:1017D00028800120288000202880C7202080002029
:1017E0002880288028802880C82020800020288009
:1017F000288028802880C9202080002028802880F8
:101800002880288028802880288028802880288098
:10181000288028802880288028802880E020208038
:1018200016202880002028801C2028800020288066
:101830002120288000202880362028800020288031
:1018400046202880002028805220288000202880E0
:1018500064202880002028807A202880002028808A
:101860008B20288000202880992028800020288034
:10187000A820288000202880B920288000202880E7
:10188000C420288000202880CA20288000202880AA
:10189000D220288000202880D9202880002028807D
:1018A000E020288000202880F32028800020288045
:1018B000E120208016202880002028801C202880FD
:1018C00000202880222028800020288036202880A0
:1018D0000020288045202880002028805220288051
:1018E0000020288064202880002028807A202880FA
:1018F000002028808B2028800020288099202880A4
:1019000000202880A820288000202880B920288056
:1019100000202880C420288000202880CA20288019
:1019200000202880D220288000202880D8202880ED
:1019300000202880E020288000202880F3202880B4
:1019400000202880E2202080052028800020288098
:101950000B202880002028801B2028800020288041
:1019600034202880002028804420288000202880DF
:101970004F20288000202880612028800020288097
:101980007920288000202880882028800020288036
:101990009720288000202880A620288000202880EA
:1019A000B720288000202880C2202880002028809E
:1019B000C720288000202880D1202880002028806F
:1019C000D620288000202880DD2028800020288044
:1019D000F320288000202880E32020800520288014
:1019E000002028800A202880002028801C202880B1
:1019F0000020288033202880002028804420288050
:101A00000020288050202880002028806220288004
:101A100000202880782028800020288088202880A6
:101A2000002028809720288000202880A620288059
:101A300000202880B720288000202880C22028800D
:101A400000202880C720288000202880D1202880DE
:101A500000202880D520288000202880DD202880B4
:101A600000202880F320288000202880E420208087
:101A70000120288000202880012028800020288044
:101A800002202880002028802A202880002028800A
:101A90003C202880002028804B202880002028809F
:101AA0005D20288000202880742028800020288045
:101AB00084202880002028809320288000202880EF
:101AC000A220288000202880B320288000202880A1
:101AD000BE20288000202880C42028800020288064
:101AE000CD20288000202880D32028800020288036
:101AF000DD20288000202880F320288000202880F6
:101B0000E52020800020288028802880288002204E
:101B100028800020288029202880002028803C2040
:101B20002880002028804B202880002028805D20ED
:101B3000288000202880742028800020288084208D
:101B40002880002028809320288000202880A22040
:101B5000288000202880B320288000202880BE20F4
:101B6000288000202880C420288000202880CD20C4
:101B7000288000202880D320288000202880DC2096
:101B8000288000202880F320288000202880E6205C
:101B900020801120288000202880342028800020E8
:101BA0002880562028800020288076202880002049
:101BB0002880772028800020288066202880002028
:101BC00028808820288000202880992028800020D4
:101BD0002880BB2028800020288099202880002091
:101BE000288066202880002028805520288000201A
:101BF000288055202880002028804520288000202B
:101C0000288043202880002028804420288000202D
:101C10002880E7202080322028800020288055203E
:101C200028800020288076202880002028806620B8
:101C300028800020288067202880002028806720B6
:101C40002880002028808720288000202880992054
:101C5000288000202880BB20288000202880992010
:101C60002880002028807720288000202880442099
:101C700028800020288056202880002028802320CB
:101C800028800020288033202880002028804520BC
:101C9000288000202880E8202080002028802880BC
:101CA00099202880002028808720288000202880F4
:101CB0008820288000202880772028800020288005
:101CC0006620288000202880882028800020288006
:101CD000AA20288000202880BB202880002028807F
:101CE00099202880002028806620288000202880D5
:101CF000552028800020288055202880002028801A
:101D0000442028800020288044202880002028802B
:101D10005520288000202880E9202080AA202880C3
:101D200000202880288028802080AA202880CF209A
:101D300020800020288028802880288028802880F3
:101D40002880288028802880288028802880288053
:101D5000288028802880F0202080002028805020A3
:101D600028800020288000E02CE028802880F320B4
:101D7000208000202880F920208006202880102044
:101D8000288029202880002028803A202080552083
:101D9000288011202080642003F08AFB29202080E5
:101DA000352020800020288051202080FF2028809E
:101DB000532020802C2028805520208082202880BD
:101DC0002C20FCE3B8427DD14FF4704355211846D6
:101DD00002F020FB4FF20105AA21284602F01AFB6F
:101DE0006E1C5221304602F015FBAF1C082138460C
:101DF00002F010FB4FF204090121484602F00AFBF1
:101E00000D214FF4304002F005FB0D214BF2010093
:101E100002F000FB0D214BF2020002F0FBFA4FF43E
:101E2000364A3421504602F0F5FA34214BF2016073
:101E300002F0F0FA34214BF2026002F0EBFA4FF4B8
:101E4000314B0D21584602F0E5FA0D214BF20110FD
:101E500002F0E0FA0D214BF2021002F0DBFA34211D
:101E60004FF4374002F0D6FA34214BF2017002F001
:101E7000D1FA34214BF2027002F0CCFA00214FF477
:101E8000324002F0C7FA00214BF2012002F0C2FA00
:101E900000214BF2022002F0BDFA24214FF4384019
:101EA00002F0B8FA24214BF6010002F0B3FA242123
:101EB0004BF6020002F0AEFA01214FF43F4002F06F
:101EC000A9FA00E0FEE30F214FF4334002F0A2FA3A
:101ED0000F214BF2013002F09DFA0F214BF202303C
:101EE00002F098FA34214FF4394002F093FA342189
:101EF0004BF6011002F08EFA34214BF6021002F07C
:101F000089FA08214FF4354002F084FA08214BF297
:101F1000015002F07FFA08214BF2025002F07AFAE7
:101F200003214FF4424002F075FA24214FF43A4065
:101F300002F070FA24214BF6012002F06BFA242102
:101F40004BF6022002F066FA00214FF43C4002F00A
:101F500061FA78214BF6014002F05CFA00214BF661
:101F6000024002F057FA00214FF43D4002F052FACD
:101F700078214BF6015002F04DFA00214BF6025049
:101F800002F048FA00214FF43E4002F043FA642187
:101F90004BF6016002F03EFA00214FF4514002F08E
:101FA00039FA33214DF2011002F034FA00214DF2DA
:101FB000021002F02FFA34214DF2031002F02AFA37
:101FC00000214DF2041002F025FA3A214DF20510DD
:101FD00002F020FA00214DF2061002F01BFA4A210D
:101FE0004DF2071002F016FA00214DF2081002F02F
:101FF00011FA5C214DF2091002F00CFA00214DF2A9
:102000000A1002F007FA81214DF20B1002F002FAD9
:1020100000214DF20C1002F0FDF9A6214DF20D1039
:1020200002F0F8F900214DF20E1002F0F3F9E5216B
:102030004DF20F1002F0EEF901214DF2101002F0F6
:10204000E9F913214DF2111002F0E4F901214DF2EA
:10205000121002F0DFF954214DF2131002F0DAF9F8
:1020600001214DF2141002F0D5F982214DF2151024
:1020700002F0D0F901214DF2161002F0CBF9CA217D
:102080004DF2171002F0C6F902214DF2181002F0BD
:10209000C1F900214DF2191002F0BCF902214DF2F4
:1020A0001A1002F0B7F901214DF21B1002F0B2F93B
:1020B00002214DF21C1002F0ADF934214DF21D1039
:1020C00002F0A8F902214DF21E1002F0A3F96721D7
:1020D0004DF21F1002F09EF902214DF2201002F085
:1020E00099F984214DF2211002F094F902214DF268
:1020F000221002F08FF9A4214DF2231002F08AF988
:1021000002214DF2241002F085F9B7214DF225107D
:1021100002F080F902214DF2261002F07BF9CF2166
:102120004DF2271002F076F902214DF2281002F04C
:1021300071F9DE214DF2291002F06CF902214DF205
:102140002A1002F067F9F2214DF22B1002F062F929
:1021500002214DF22C1002F05DF9FE214DF22D10FE
:1021600002F058F903214DF22E1002F053F910211C
:102170004DF22F1002F04EF903214DF2301002F013
:1021800049F933214DF2311002F044F903214DF2A7
:10219000321002F03FF96D214DF2331002F03AF99E
:1021A00000214FF4524002F035F933214DF2012065
:1021B00002F030F900214DF2022002F02BF9342117
:1021C0004DF2032002F026F900214DF2042002F026
:1021D00021F93A214DF2052002F01CF900214DF2BF
:1021E000062002F017F94A214DF2072002F012F9F9
:1021F00000214DF2082002F00DF95C214DF209207A
:1022000002F008F900214DF20A2002F003F98121C1
:102210004DF20B2002F0FEF800214DF20C2002F0EE
:10222000F9F8A6214DF20D2002F0F4F800214DF24C
:102230000E2002F0EFF8E5214DF20F2002F0EAF84F
:1022400001214DF2102002F0E5F813214DF211208A
:1022500002F0E0F801214DF2122002F0DBF85421E7
:102260004DF2132002F0D6F801214DF2142002F0B5
:10227000D1F882214DF2152002F0CCF801214DF267
:10228000162002F0C7F8CA214DF2172002F0C2F85A
:1022900002214DF2182002F0BDF800214DF2192064
:1022A00002F0B8F802214DF21A2002F0B3F8012131
:1022B0004DF21B2002F0AEF802214DF21C2002F07C
:1022C000A9F834214DF21D2002F0A4F802214DF2AC
:1022D0001E2002F09FF867214DF21F2002F09AF8AD
:1022E00002214DF2202002F095F884214DF22120A8
:1022F00002F090F802214DF2222002F08BF8A42186
:102300004DF2232002F086F802214DF2242002F043
:1023100081F8B7214DF2252002F07CF802214DF220
:10232000262002F077F8CF214DF2272002F072F834
:1023300002214DF2282002F06DF8DE214DF2292015
:1023400002F068F802214DF22A2002F063F8F2212F
:102350004DF22B2002F05EF802214DF22C2002F00B
:1023600059F8FE214DF22D2002F054F803214DF2D0
:102370002E2002F04FF810214DF22F2002F04AF8E3
:1023800003214DF2302002F045F833214DF2312087
:1023900002F040F803214DF2322002F03BF86D21AB
:1023A0004DF2332002F036F800214FF4534002F092
:1023B00031F833214DF2013002F02CF800214DF2BA
:1023C000023002F027F834214DF2033002F022F8F7
:1023D00000214DF2043002F01DF83A214DF2053093
:1023E00002F018F800214DF2063002F013F84A21ED
:1023F0004DF2073002F00EF800214DF2083002F0E5
:1024000009F85C214DF2093002F004F800214DF288
:102410000A3001F0FFFF81214DF20B3001F0FAFF8D
:1024200000214DF20C3001F0F5FFA6214DF20D30E8
:1024300001F0F0FF00214DF20E3001F0EBFFE5213D
:102440004DF20F3001F0E6FF01214DF2103001F0A6
:10245000E1FF13214DF2113001F0DCFF01214DF2BB
:10246000123001F0D7FF54214DF2133001F0D2FFAA
:1024700001214DF2143001F0CDFF82214DF21530D3
:1024800001F0C8FF01214DF2163001F0C3FFCA214F
:102490004DF2173001F0BEFF02214DF2183001F06D
:1024A000B9FF00214DF2193001F0B4FF02214DF2C5
:1024B0001A3001F0AFFF01214DF21B3001F0AAFFED
:1024C00002214DF21C3001F0A5FF34214DF21D30E8
:1024D00001F0A0FF02214DF21E3001F09BFF6721A9
:1024E0004DF21F3001F096FF02214DF2203001F035
:1024F00091FF84214DF2213001F08CFF02214DF239
:10250000223001F087FFA4214DF2233001F082FF39
:1025100002214DF2243001F07DFFB7214DF225302C
:1025200001F078FF02214DF2263001F073FFCF2138
:102530004DF2273001F06EFF02214DF2283001F0FC
:1025400069FFDE214DF2293001F064FF02214DF2D6
:102550002A3001F05FFFF2214DF22B3001F05AFFDB
:1025600002214DF22C3001F055FFFE214DF22D30AD
:1025700001F050FF03214DF22E3001F04BFF1021EE
:102580004DF22F3001F046FF03214DF2303001F0C3
:1025900041FF33214DF2313001F03CFF03214DF278
:1025A000323001F037FF6D214DF2333001F032FF50
:1025B00000214FF4544001F02DFF332100E080E36F
:1025C0004DF2014001F026FF00214DF2024001F0E2
:1025D00021FF34214DF2034001F01CFF00214DF298
:1025E000044001F017FF3A214DF2054001F012FFBF
:1025F00000214DF2064001F00DFF4A214DF2074047
:1026000001F008FF00214DF2084001F003FF5C21BA
:102610004DF2094001F0FEFE00214DF20A4001F0AA
:10262000F9FE81214DF20B4001F0F4FE00214DF244
:102630000C4001F0EFFEA6214DF20D4001F0EAFE44
:1026400000214DF20E4001F0E5FEE5214DF20F4074
:1026500001F0E0FE01214DF2104001F0DBFE1321FC
:102660004DF2114001F0D6FE01214DF2124001F071
:10267000D1FE54214DF2134001F0CCFE01214DF268
:10268000144001F0C7FE82214DF2154001F0C2FE58
:1026900001214DF2164001F0BDFECA214DF2174056
:1026A00001F0B8FE02214DF2184001F0B3FE002106
:1026B0004DF2194001F0AEFE02214DF21A4001F038
:1026C000A9FE00E0FFE201214DF21B4001F0A2FE55
:1026D00002214DF21C4001F09DFE34214DF21D40BF
:1026E00001F098FE02214DF21E4001F093FE672199
:1026F0004DF21F4001F08EFE02214DF2204001F00C
:1027000089FE84214DF2214001F084FE02214DF228
:10271000224001F07FFEA4214DF2234001F07AFE19
:1027200002214DF2244001F075FEB7214DF2254003
:1027300001F070FE02214DF2264001F06BFECF2128
:102740004DF2274001F066FE02214DF2284001F0D3
:1027500061FEDE214DF2294001F05CFE02214DF2C6
:102760002A4001F057FEF2214DF22B4001F052FEBB
:1027700002214DF22C4001F04DFEFE214DF22D4084
:1027800001F048FE03214DF22E4001F043FE1021DE
:102790004DF22F4001F03EFE03214DF2304001F09A
:1027A00039FE33214DF2314001F034FE03214DF268
:1027B000324001F02FFE6D214DF2334001F02AFE30
:1027C00000214FF4554001F025FE33214DF2015018
:1027D00001F020FE00214DF2025001F01BFE3421D9
:1027E0004DF2035001F016FE00214DF2045001F0AD
:1027F00011FE3A214DF2055001F00CFE00214DF280
:10280000065001F007FE4A214DF2075001F002FE8A
:1028100000214DF2085001F0FDFD5C214DF2095000
:1028200001F0F8FD00214DF20A5001F0F3FD812185
:102830004DF20B5001F0EEFD00214DF20C5001F075
:10284000E9FDA6214DF20D5001F0E4FD00214DF20D
:102850000E5001F0DFFDE5214DF20F5001F0DAFDE1
:1028600001214DF2105001F0D5FD13214DF2115010
:1028700001F0D0FD01214DF2125001F0CBFD5421A9
:102880004DF2135001F0C6FD01214DF2145001F03C
:10289000C1FD82214DF2155001F0BCFD01214DF228
:1028A000165001F0B7FDCA214DF2175001F0B2FDEC
:1028B00002214DF2185001F0ADFD00214DF21950EA
:1028C00001F0A8FD02214DF21A5001F0A3FD0121F3
:1028D0004DF21B5001F09EFD02214DF21C5001F003
:1028E00099FD34214DF21D5001F094FD02214DF26D
:1028F0001E5001F08FFD67214DF21F5001F08AFD3F
:1029000002214DF2205001F085FD84214DF221502D
:1029100001F080FD02214DF2225001F07BFDA42147
:102920004DF2235001F076FD02214DF2245001F0CA
:1029300071FDB7214DF2255001F06CFD02214DF2E1
:10294000265001F067FDCF214DF2275001F062FDC6
:1029500002214DF2285001F05DFDDE214DF229509B
:1029600001F058FD02214DF22A5001F053FDF221F1
:102970004DF22B5001F04EFD02214DF22C5001F092
:1029800049FDFE214DF22D5001F044FD03214DF291
:102990002E5001F03FFD10214DF22F5001F03AFD75
:1029A00003214DF2305001F035FD33214DF231500D
:1029B00001F030FD03214DF2325001F02BFD6D216D
:1029C0004DF2335001F026FD00214FF4564001F046
:1029D00021FD33214DF2016001F01CFD00214DF27B
:1029E000026001F017FD34214DF2036001F012FD89
:1029F00000214DF2046001F00DFD3A214DF2056019
:102A000001F008FD00214DF2066001F003FD4A21AE
:102A10004DF2076001F0FEFC00214DF2086001F06C
:102A2000F9FC5C214DF2096001F0F4FC00214DF24B
:102A30000A6001F0EFFC81214DF20B6001F0EAFC2D
:102A400000214DF20C6001F0E5FCA6214DF20D6075
:102A500001F0E0FC00214DF20E6001F0DBFCE5210D
:102A60004DF20F6001F0D6FC01214DF2106001F033
:102A7000D1FC13214DF2116001F0CCFC01214DF28B
:102A8000126001F0C7FC54214DF2136001F0C2FC4A
:102A900001214DF2146001F0BDFC82214DF2156060
:102AA00001F0B8FC01214DF2166001F0B3FCCA211F
:102AB0004DF2176001F0AEFC02214DF2186001F0FA
:102AC000A9FC00214DF2196001F0A4FC02214DF295
:102AD0001A6001F09FFC01214DF21B6001F09AFC8D
:102AE00002214DF21C6001F095FC34214DF21D6075
:102AF00001F090FC02214DF21E6001F08BFC672179
:102B00004DF21F6001F086FC02214DF2206001F0C1
:102B100081FC84214DF2216001F07CFC02214DF208
:102B2000226001F077FCA4214DF2236001F072FCD9
:102B300002214DF2246001F06DFCB7214DF22560B9
:102B400001F068FC02214DF2266001F063FCCF2108
:102B50004DF2276001F05EFC02214DF2286001F089
:102B600059FCDE214DF2296001F054FC02214DF2A6
:102B70002A6001F04FFCF2214DF22B6001F04AFC7B
:102B800002214DF22C6001F045FCFE214DF22D603A
:102B900001F040FC03214DF22E6001F03BFC1021BE
:102BA0004DF22F6001F036FC03214DF2306001F050
:102BB00031FC33214DF2316001F02CFC03214DF248
:102BC000326001F027FC6D214DF2336001F022FCF0
:102BD0005521184601F01EFCAA21284601F01AFCD6
:102BE0005221304601F016FC0821384601F012FC53
:102BF0000021484601F00EFCCC21584601F00AFCA9
:102C000000214BF2011001F005FC0521504601F0B6
:102C100001FC70214FF4374001F0FCFB70214BF2B6
:102C2000017001F0F7FB01214FF4384001F0F2FB95
:102C300003214BF6010001F0EDFB03214BF60200EE
:102C400001F0E8FB03214BF6030001F0E3FB022156
:102C50004FF43C4001F0DEFB00214BF6014001F057
:102C6000D9FB00214BF6024001F0D4FBD0214FF4F8
:102C7000494001F0CFFB02214CF6011001F0CAFBE4
:102C800050214CF6021001F0C5FB50214CF6031008
:102C900001F0C0FB50214CF6041001F0BBFB0021F9
:102CA0004FF4545001F0B6FB55214FF4685001F039
:102CB000B1FB4FF488502080782002F013FC4FF4D1
:102CC00024502080FEE3A0F513414FF4E06940F268
:102CD000022A4FF4274B253924D040F20777C91E2A
:102CE0007ED04FF4887B08317BD011397AD0A0F5A3
:102CF000A841083977D0A0F5A8514FF4407B053999
:102D000072D0B1F5204170D0B1F580516ED0A0F5F0
:102D10008A4131396BD0091F6AD0A0F5C851633997
:102D200067D0CFE747F6F001E52001F073FB3146AD
:102D3000012001F06FFB4946022001F06BFB41F2DC
:102D40003001032001F066FB0021042001F062FB4A
:102D50005146082001F05EFB0021092001F05AFBDA
:102D600000210A2001F056FB00210C2001F052FB4B
:102D700000210D2001F04EFB00210F2001F04AFB45
:102D80000021102001F046FB0721112001F042FB39
:102D90000021122001F03EFB0021132001F03AFB3C
:102DA0000021072001F036FB41F29061102001F074
:102DB00031FB40F22721112001F02CFB9D21122034
:102DC00001F028FB4FF4C851132001F023FB25210B
:102DD000292001F01FFB0D212B2001F01BFB09E036
:102DE00077E033E1D8E1AEE24AE3FDE3FDE3FDE362
:102DF000FDE3FDE30721302001F00CFB40F203313D
:102E0000312001F007FB0321322001F003FB40F2E7
:102E10000621352001F0FEFA0821362001F0FAFAE9
:102E200040F20641372001F0F5FA4FF441713820A5
:102E300001F0F0FA0721392001F0ECFA40F20261CA
:102E40003C2001F0E7FA08213D2001F0E3FA0021DF
:102E5000502001F0DFFAEF21512001F0DBFA0021D0
:102E6000522001F0D7FA40F23F11532001F0D2FA7C
:102E70005946602001F0CEFA0121612001F0CAFA22
:102E800000216A2001F0C6FA0021802001F0C2FA78
:102E90000021812001F0BEFA0021822001F0BAFA5F
:102EA0000021832001F0B6FA0021842001F0B2FA5B
:102EB0000021852001F0AEFA1021902001F0AAFA3D
:102EC0004FF4C061922001F0A5FA40F233110720BF
:102ED000FDE341F28F01EC2001F09CFA41F2342134
:102EE000EF2001F097FA3146012001F093FA4946AC
:102EF000022001F08FFA41F23001032001F08AFA3A
:102F00000021042001F086FA5146082001F082FADF
:102F10000021092001F07EFA00210A2001F07AFA4E
:102F200001210C2001F076FA00210D2001F072FA47
:102F300000210F2001F06EFA0021102001F06AFA42
:102F40000721112001F066FA0021122001F062FA37
:102F50000021132001F05EFA0121072001F05AFA46
:102F6000322002F0A5FA41F29041102001F052FA0D
:102F700040F22721112001F04DFA322002F098FA98
:102F80008A21122001F046FA322002F091FA4FF421
:102F9000D051132001F03EFA0621292001F03AFA1F
:102FA0000D212B2001F036FA322002F081FA0021A7
:102FB000202001F02FFA0021212001F02BFA3220ED
:102FC00002F076FA0021302001F024FA40F2046188
:102FD000312001F01FFA40F20531322001F01AFAD7
:102FE0000021352001F016FA40F60941362001F0A3
:102FF00011FA4FF40171372001F00CFA40F201315F
:10300000382001F007FA3946392001F003FA00218F
:103010003C2001F0FFF940F60A213D2001F0FAF9C9
:10302000322002F045FA0021502001F0F3F9EF219F
:10303000512001F0EFF90021522001F0EBF940F2AC
:103040003F11532001F0E6F9594651E100210846AD
:1030500001F0E0F93146012001F0DCF94946022097
:1030600001F0D8F941F23001032001F0D3F9002139
:10307000042001F0CFF95146082001F0CBF90021DE
:10308000092001F0C7F900210A2001F0C3F901214C
:103090000C2001F0BFF900210D2001F0BBF9002147
:1030A0000F2001F0B7F9322002F002FA40F20111CC
:1030B000072001F0AFF9322002F0FAF94FF48651FF
:1030C000102001F0A7F90721112001F0A3F95B46B8
:1030D0005946122001F09EF94FF43061132001F09F
:1030E00099F90021292001F095F944F210012B20D3
:1030F00001F090F90021502001F08CF9EF215120CE
:1031000001F088F90021522001F084F940F23F11CA
:10311000532001F07FF94FF41C51602001F07AF93F
:103120000121612001F076F900216A2001F072F995
:103130000021802001F06EF90021812001F06AF960
:103140000021822001F066F90021832001F062F95C
:103150000021842001F05EF90021852001F05AF958
:103160001021902001F056F90021922001F052F92F
:103170000121932001F04EF91946952001F04AF9FA
:103180000021972001F046F90021982001F042F932
:1031900040F27311072085E341F21401E72001F0AA
:1031A00039F93146012001F035F94FF40071022060
:1031B00001F030F941F23801032001F02BF95146BA
:1031C000082001F027F90021092001F023F900214E
:1031D0000A2001F01FF900210C2001F01BF9002149
:1031E0000D2001F017F900210F2001F013F9002143
:1031F000102001F00FF90721112001F00BF9002137
:10320000122001F007F90021132001F003F9C82072
:1032100002F04EF941F29061102001F0FBF840F20B
:103220002721112001F0F6F8322002F041F90C219B
:10323000122001F0EFF8322002F03AF94FF4006169
:10324000132001F0E7F81121292001F0E3F80B2108
:103250002B2001F0DFF8322002F02AF90021202093
:1032600001F0D8F840F23F131946212001F0D2F8BE
:103270000021302001F0CEF84FF483742146312034
:1032800001F0C8F80021322001F0C4F84FF40171B8
:10329000352001F0BFF841F20A61362001F0BAF89A
:1032A0003946372001F0B6F82146382001F0B2F84F
:1032B0003946392001F0AEF840F202413C2001F0DD
:1032C000A9F840F60F413D2001F0A4F8002150205C
:1032D00001F0A0F8EF21512001F09CF800215220CC
:1032E00001F098F81946532001F094F84FF41C515E
:1032F000602001F08FF80121612001F08BF800219E
:103300006A2001F087F80021802001F083F8002175
:10331000812001F07FF80021822001F07BF800215C
:10332000832001F077F80021842001F073F8002158
:10333000852001F06FF81021902001F06BF84FF418
:10334000C0619220FDE33146012001F063F8494657
:10335000022001F05FF841F23001032001F05AF839
:103360000021042001F056F840F20721082001F066
:1033700051F80021092001F04DF800210A2001F048
:1033800049F800210C2001F045F800210D2001F042
:1033900041F800210F2001F03DF8142002F088F8D8
:1033A00041F2B061102001F035F80121112001F047
:1033B00031F80121172001F02DF84FF49C711220F3
:1033C00001F028F84FF40061132001F023F80921DF
:1033D000292001F01FF809212A2001F01BF8002103
:1033E000A42001F017F80021502001F013F8EF217C
:1033F000512001F00FF80021522001F00BF840F2AB
:103400003F11532001F006F84FF41C51602001F0E9
:1034100001F80121612000F0FDFF00216A2000F089
:10342000F9FF0021802000F0F5FF0021812000F04D
:10343000F1FF0021822000F0EDFF0021832000F049
:10344000E9FF0021842000F0E5FF0021852000F045
:10345000E1FF1321902000F0DDFF0021922000F019
:10346000D9FF0321932000F0D5FF5946952000F0A5
:10347000D1FF40F27311072000F0CCFF322010E1A1
:103480000021072000F0C6FF322002F011F84FF4AF
:103490008E71122000F0BEFF0121A42000F0BAFFBF
:1034A0000F21082000F0B6FF08210A2000F0B2FF2B
:1034B00008210D2000F0AEFF3946302000F0AAFFB1
:1034C000072100E06FE3312000F0A4FF40F2036128
:1034D000322000F09FFF4C464946332000F09AFF0F
:1034E0005146342000F096FF0221352000F092FF73
:1034F00041F60F71362000F08DFF3946372000F07D
:1035000089FF0021382000F085FF0021392000F0DC
:1035100081FF39463A2000F07DFF00213B2000F07A
:1035200079FF07213C2000F075FF00213D2000F0CD
:1035300071FF322001F0BCFF0121072000F06AFF7B
:103540000121172000F066FF322001F0B1FF4FF497
:10355000BD51102000F05EFF40F21721112000F055
:1035600059FF4FF48F71122000F054FF4FF4706137
:10357000132000F04FFF00212A2000F04BFF0A210A
:10358000292000F047FF4FF49F71122000F042FF06
:103590000021502000F03EFFEF21512000F03AFFC3
:1035A0000021522000F036FF40F23F11532000F07E
:1035B00031FF4FF41C51602000F02CFF01216120ED
:1035C00000F028FF00216A2000F024FF0021802065
:1035D00000F020FF0021812000F01CFF002182204C
:1035E00000F018FF002104E05EE05CE125E2DBE290
:1035F00082E3832000F00EFF0021842000F00AFF08
:103600000021852000F006FF1321902000F002FF2A
:103610005946922000F0FEFE0521932000F0FAFEAC
:103620000021952000F0F6FE0021972000F0F2FE28
:103630000021982000F0EEFE3146012000F0EAFE65
:103640002146022000F0E6FE41F23801032000F09E
:10365000E1FE0021042000F0DDFE00210C2000F03E
:10366000D9FE00210F2000F0D5FE0021202000F01F
:10367000D1FE0021212000F0CDFE2121072000F005
:10368000C9FE142001F014FF6121072000F0C2FEE2
:10369000142001F00DFF40F27311072000F0BAFE74
:1036A000142001F005FFA1E30021084600F0B2FE5E
:1036B0000021084600F0AEFE0021084600F0AAFEF8
:1036C0000021084600F0A6FE0121A42000E0E5E06C
:1036D00000F0A0FE142001F0EBFE4FF41C54214634
:1036E000602000F097FE55465146082000F092FEFB
:1036F0004FF40571302000F08DFE43F2157131203A
:1037000000F088FE40F20461322000F083FE40F6B3
:103710001661332000F07EFE42F21121342000F0C9
:1037200079FE4FF4A851352000F074FE48F207519D
:10373000362000F06FFE41F20741372000F06AFEAC
:1037400041F20341382000F065FE2021392000F0CD
:1037500061FE1A21902000F05DFE0021102000F093
:1037600059FE0721112000F055FE0021122000F023
:1037700051FE0021132000F04DFE142001F098FEB0
:103780004FF4E661102000F045FE40F237111120A1
:1037900000F040FE142001F08BFE4FF4DC7112208B
:1037A00000F038FE142001F083FE4FF47061132006
:1037B00000F030FE80212A2000F02CFE4821292034
:1037C00000F028FE142001F073FE3146012000F0C5
:1037D00021FE4946022000F01DFE41F2380103207F
:1037E00000F018FE2946082000F014FE00210A20EF
:1037F00000F010FE00210C2000F00CFE00210D2036
:1038000000F008FE30210E2000F004FE00215020C0
:1038100000F000FEEF21512000F0FCFD00215220BD
:1038200000F0F8FD40F23F11532000F0F3FD214677
:10383000602000F0EFFD0121612000F0EBFD002190
:103840006A2000F0E7FD1121902000F0E3FD4FF425
:10385000C061922000F0DEFD40F20241932000F0B2
:10386000D9FD0221942000F0D5FD142001F020FEA6
:103870000121072000F0CEFD142001F019FE612186
:10388000072000F0C7FD40F27311072000F0C2FDD1
:103890000021202000F0BEFD0021212000F0BAFD13
:1038A000222100207DE10021084600F0B3FD002127
:1038B000084600F0AFFD142001F0FAFD0021084693
:1038C00000F0A8FD0021084600F0A4FD00210846F4
:1038D00000F0A0FD0021084600F09CFD0121A4207D
:1038E00000F098FD142001F0E3FD4FF41C5160201E
:1038F00000F090FD40F60601082000F08BFD40F23C
:1039000003731946302000F085FD0121312000F0BD
:1039100081FD0421322000F07DFD4FF481713320C0
:1039200000F078FD5C465946342000F073FD40F20B
:103930000311352000F06EFD1F21362000F06AFDD6
:103940001946372000F066FD0121382000F062FDA5
:103950000421392000F05EFD1521902000F05AFD71
:103960004FF48261102000F055FD40F247211120F4
:1039700000F050FD4FF4DE71122000F04BFD4FF4CB
:103980006061132000F046FD782001F091FD314682
:10399000012000F03FFD4FF40071022000F03AFDDD
:1039A00041F23001032000F035FD08210A2000F02B
:1039B00031FD00210C2000F02DFD20210E2000F013
:1039C00029FD00210F2000F025FD0021202000F01E
:1039D00021FD0021212000F01DFD3D212A2000F0C5
:1039E00019FD142001F064FD2D21292000F012FDA5
:1039F0000021502000F00EFD4DF2EF01512000F0AB
:103A000009FD0021522000F005FD40F23F11532036
:103A100000F000FD0021612000F0FCFC00216A2084
:103A200000F0F8FC2146922000F0F4FC05219320E0
:103A300000F0F0FC3146FFF7ADBB0121002000F0A3
:103A4000E9FC0A2001F034FD41F22861102000F069
:103A5000E1FC0E21122000F0DDFC40F6392113209C
:103A600000F0D8FC0A2001F023FD4021112000F0D5
:103A7000D1FC5021152000F0CDFC0A2001F018FDEA
:103A80001E21122000F0C6FC0A2001F011FD4FF4A7
:103A9000B151102000F0BEFC42F63921132000F095
:103AA000B9FC0A2001F004FD3146012000F0B2FC0F
:103AB0005946022000F0AEFC41F23801032000F02C
:103AC000A9FC5146082000F0A5FC08210A2000F0BE
:103AD000A1FC0021302000F09DFC40F20241312089
:103AE00000F098FC4FF48371322000F093FC40F218
:103AF0000351332000F08EFC4FF48271342000F02B
:103B000089FC40F20131352000F084FC3946362032
:103B100000F080FC40F20531372000F07BFC4FF4D0
:103B20000271382000F076FC40F60B71392000F06D
:103B300071FC0221412000F06DFC4FF41C5160200B
:103B400000E0D4E000F066FC0121612000F062FC9E
:103B50004FF40471902000F05DFC4FF485719220C9
:103B600000F058FC0421932000F054FC3146A020C2
:103B700000F050FC0121072000F04CFC212107201F
:103B800000F048FC2321072000F044FC33210720EB
:103B900000F040FC40F23311072000F03BFC002114
:103BA000A02000F037FC21E13021152000F032FC8C
:103BB00010219A2000F02EFC2021112000F02AFC78
:103BC00043F22841102000F025FC0221122000F0D1
:103BD00021FC41F23801132000F01CFC282001F0E8
:103BE00067FC1221084600F015FC282001F060FC5B
:103BF00043F22041102000F00DFC43F23801132065
:103C000000F008FC462001F053FC0021302000F0B9
:103C100001FC40F20241312000F0FCFB40F2073190
:103C2000322000F0F7FB4FF44171332000F0F2FB3B
:103C30000421342000F0EEFB40F20141352000F079
:103C4000E9FB3946362000F0E5FB40F2053137202C
:103C500000F0E0FB4FF4C2631946382000F0DAFBB5
:103C60001946392000F0D6FB3146012000F0D2FB86
:103C70005946022000F0CEFB41F23001032000F053
:103C8000C9FB40F60801082000F0C4FB08210A2007
:103C900000F0C0FB4FF41C51602000F0BBFB012181
:103CA000612000F0B7FB4FF49F71902000F0B2FB51
:103CB0003146922000F0AEFB3146932000F0AAFB83
:103CC0004FF44051A02000F0A5FB1021A32000F0EC
:103CD000A1FB0121072000F09DFB2121072000F01E
:103CE00099FB2321072000F095FB3321072000F0EA
:103CF00091FB40F233119EE6E22020801D202880B7
:103D00000220288004202880642001F0EBFBE020C2
:103D10002080012028800A2001F0CAFBE0202080BA
:103D2000032028800C2001F0C3FB012020800A2002
:103D300001F0BEFBE62020802F202880FF20288075
:103D40002880B02020802020288000202880032088
:103D5000288040F21F3028800120288040F2DF10A8
:103D6000288000202880B42020800420288040F271
:103D70001F402880002028802E20288000202880B6
:103D8000288028802880B6202080022028804FF4B8
:103D90000370288000202880172028801520288084
:103DA000002028802880F0202080032028802920DF
:103DB0002080D020208000202880BE202080052068
:103DC0002880FE202880012028800020288028804C
:103DD0002880B82020800320288001202880BA2055
:103DE000208001202880642000F026F80020FCF7C5
:103DF00093FF05490120C1F880014046FCF756FFBA
:103E00001FB0BDE8F08F000000802142034808B5D4
:103E10000088ADF80000BDF8000008BD0008006C87
:103E2000044910B50880052001F05CFBBDE8104096
:103E3000FFF7ECBFFE07006C0C4A10B5BE211180E5
:103E4000941C0521218003F093FA4FF06632084B51
:103E500003F0DEFA03F048FA208001202080FF20E2
:103E6000208000202080208010BD0000FE07006C14
:103E700066660440F0B5674E00233146B279898802
:103E800046F6040741F66314012A01D02AB11DE069
:103E9000B9421BD0A14202D118E0A14216D1082894
:103EA00014D2DFE800F00406080A0C0E10120620F7
:103EB0000CE007200AE0042008E0052006E00120CD
:103EC00004E0002002E0032000E00220A1F5134CF2
:103ED00045F2103245F21055BCF1410C07D0B94201
:103EE00005D0914203D0A94201D0A14275D1082842
:103EF00012D2DFE800F0110406080A0C0E1080232D
:103F00000AE0402308E0C02306E0202304E0602309
:103F100002E0A02300E0E023A94202D14FF4585070
:103F200000E03620914205D0A94203D0A14201D041
:103F300043F00803B94201D143F00203194600F0EF
:103F400069FAB288A2420AD098063088718802D5F0
:103F5000884202D303E0884201D9318070802E4824
:103F6000811CAA427289028021D100230B80531C3C
:103F7000038000230B80931C038033885B1E1C0A84
:103F80000C80D21C0280DAB20A80B289028000233F
:103F90000B80531C038000230B80931C03807388C9
:103FA0005B1E1C0A0C80D21C0280D8B212E00022D8
:103FB0000A800A803288521E130A0B80D2B20A800D
:103FC000B28902800020088008807088401E020AA2
:103FD0000A80C0B20880F0BDFFE7082812D2DFE8EF
:103FE00000F0040608110A0C0E1030230AE010231A
:103FF00008E0202306E0382304E0282302E0182309
:1040000000E00823BDE8F040032043F4805100F0B5
:1040100001BA0000A0010020FE07006C2DE9F04F5E
:104020004E4F0B463A46BD880C0ADFF834B19189F1
:104030005289A5F513464FEA102C0BF1020A413EB6
:104040001DD0A5F5A646103E19D03E46BE4696F8B0
:1040500006903688A5F5D047A6EB0008A8F1010820
:10406000043F17D0A5F5C857633F28D0A5F5AA4748
:104070007646103F51D0B9F1010F63D064E0ABF840
:1040800000205246AAF800C0C0B2AAF80000ABF85F
:1040900000100FE0B9F1010F01D11FFA88F0ABF861
:1040A0000020050A5246AAF80050C0B2AAF8000043
:1040B000ABF800101480D8B21080BDE8F08FB9F1D1
:1040C000000F1BD0ABF800205246AAF800C0C0B2C7
:1040D000AAF80000761E300AAAF80000F0B210809C
:1040E000ABF8001011461480D8B21080BEF8020060
:1040F000401E020A0A80C0B20880DEE71FFA88F07C
:10410000ABF8002000265246AAF80060AAF800602A
:10411000060AAAF80060C0B2E1E7ABF80020AAF8EE
:1041200000C0521CABF80020C0B2AAF80000ABF8E7
:104130000010AAF80040491CABF80010D8B2AAF849
:104140000000BAE71FFA88F00146104600F062F955
:10415000B089BDE8F04F194600F05CB9A00100201D
:10416000FE07006C2DE9FC4F044691464844401E72
:1041700086B2C818401E83B2009004EB0900401EAE
:10418000C0F3072EDFF850C100980D46C0F3072B8F
:104190006046BCF804204FEA112881894089A2F5C5
:1041A00013474FEA142A413F10D0A2F5A647103F0B
:1041B0000CD0A2F5D047043F08D09CF8067041F619
:1041C000631C0197012F13D1624511D1434F3880F1
:1041D000B81CA0F800A0E2B20280A0F800E0F2B2A1
:1041E00002803980A0F80080E9B2018059461CE0C5
:1041F000394F62453F881DD1A7EB0902121B374C8E
:10420000009B92B29BB22080160AA01C0680D6B2F8
:1042100006804A44521E160A0680D2B202802180CD
:10422000A0F80080E9B20180190A0180D9B20180AA
:10423000BDE8FC8FA2F5A04CBCF5A26C1FD0019884
:1042400001283FD0B04621462E4650204FF0510A5B
:104250004FF05209532700F0DDF84146504600F078
:10426000D9F83146484600F0D5F81946384600F0EE
:10427000D1F829462046BDE8FC4FFFF7CFBE174ACC
:104280001080971CA7F800A000F1010CA2F800C054
:10429000E4B23C80841C1480A7F800E0C01C1080AD
:1042A000F0B238801180A7F80080481C1080E8B276
:1042B0003880881C1080A7F800B0C91C1180D8B2C3
:1042C0003880B5E7B81B401E86B2381B9846401EA2
:1042D000294683B2B9E70000A0010020FE07006C68
:1042E0002DE9F84F82461F460C468B46580700D0F2
:1042F000012000EBD70079084843203AC0B202F011
:10430000FF090026009041E00C2F10D0102F12D092
:10431000182F3ED1204909EBC90001EB80004FF076
:104320000008855D28060AD51C4802880BE009EBC9
:1043300049001B49F1E71B4901EB0910EFE70A9817
:1043400028B91648428821465046FCF77FFD68068A
:10435000050E1548641CA4B24088A04219D9A4EBEC
:104360000B00B84209D10AF101001FFA80FA0E4889
:104370005C46018851450CD906E008F1010000F0C7
:10438000FF08B8F1080FCDD3761CF6B2009886422C
:10439000BAD3BDE8F88F0000C88200081E000020D4
:1043A00064780008D87C0008A00100202DE9F84FAF
:1043B000044600F0FF0810190D46DDE90A761FFAE1
:1043C00080FA58191FFA80F94FF0000B11E054459C
:1043D00002D3E819444685B24D450FD23B462946E3
:1043E0002046CDF800B0FFF77BFF04EB570084B206
:1043F000761C3278A2F120005E28E8D9BDE8F88F5B
:10440000024803490089088070470000A00100208D
:10441000FE07006C024A1080901C0180704700006B
:10442000FE07006C38B50121482000F0C3FA2024B3
:10443000ADF8004010208DF8030003200B4D8DF8DF
:10444000020069462846FCF73FFB20212846FCF77E
:1044500092FBADF80040064C69462046FCF734FB61
:1044600020212046FCF787FB38BD0000000C0140EE
:1044700000180140FEE7704730B50F23C27801787D
:104480000125F2B1144A126801F1E02102F4E06260
:10449000C2F5E062120AC2F10404D3404278A2409D
:1044A00084781C401443220181F80024007800F035
:1044B0001F018D404009800000F1E020C0F800514C
:1044C00030BD01F01F0085404809800000F1E02068
:1044D000C0F8805130BD00000CED00E002490843F7
:1044E00002490860704700000000FA050CED00E08A
:1044F00030B40021084B0A46002003EBC004401CE6
:10450000C0B262548028F8D3491CC9B20829F3D339
:1045100030BC00F0B9B800007E27002010B50021A3
:104520008D2000F037F90021142000F033F900212C
:10453000BDE81040AF2000F02DB9000010B57F2875
:1045400016D83F2914D80723A3EBD10301F00701A4
:10455000C1F107040121A140064CDBB204EBC0000D
:10456000002AC25CC9B201D00A4300E08A43C254A7
:1045700010BD00007E27002038B50121082000F082
:1045800019FA4FF47870ADF8000003208DF802009E
:1045900010203C4C8DF8030069462046FCF794FA45
:1045A00080212046FCF7E5FA642000F081FF80219D
:1045B0002046FCF7E0FA0021AE2000F0EBF80021E5
:1045C000D52000F0E7F80021502000F0E3F80021AA
:1045D000A82000F0DFF800213F2000F0DBF80021E8
:1045E000D32000F0D7F80021084600F0D3F80021CE
:1045F000402000F0CFF800218D2000F0CBF8002102
:10460000142000F0C7F80021202000F0C3F800219A
:10461000022000F0BFF80021A12000F0BBF800212B
:10462000C02000F0B7F80021DA2000F0B3F8002134
:10463000122000F0AFF80021812000F0ABF800213B
:10464000EF2000F0A7F80021D92000F0A3F8002106
:10465000F12000F09FF80021DB2000F09BF8002102
:10466000302000F097F80021A42000F093F80021FA
:10467000A62000F08FF80021AF2000F08BF8FFF7A4
:1046800037FF38BD000C014070B5104E002505F114
:10469000B000C0B2002100F07DF80021084600F013
:1046A00079F80021102000F075F8002406EBC40012
:1046B0000121405D00F06EF8641CE4B2802CF5D35B
:1046C0006D1CEDB2082DE2D370BD00007E270020E6
:1046D0002DE9F04F203A98460D468346894602F070
:1046E000FF0A00262EE0B8F10C0F08D0174901EBA5
:1046F0000A100027845D200607D5099A08E01449AE
:104700000AEB4A0001EB8000F3E7099890B1002220
:1047100029465846FFF712FF6D1C6006EDB2040EE5
:10472000A5EB0901414507D10BF101004D4600F011
:10473000FF0B05E00122EBE77F1CFFB2082FDAD365
:10474000761CF6B24645CED3BDE8F08FEE95000854
:104750007A910008F8B516460D460446012714E084
:104760007A2C02D900241035EDB23A2D03D9002459
:104770002546FFF7BDFE009732780C2329462046D8
:10478000FFF7A6FF0834E4B2761C30780028E7D1A2
:10479000F8BD00002DE9F041164E054600294FF006
:1047A0004001304602D0FCF7E6F901E0FCF7E1F900
:1047B00000244FF480784FF4007739463046FCF7F8
:1047C000D8F928064146304602D5FCF7D4F901E075
:1047D000FCF7CFF939463046FCF7CDF96806641C82
:1047E000050EE4B2082CE8D33046BDE8F041402184
:1047F000FCF7C1B9000C01402DE9F8430024012168
:1048000040F23D1000F0D6F84FF40065ADF80050CE
:1048100048268DF803600320DFF8E4808DF802005D
:1048200069464046FCF750F929464046FCF7A3F993
:1048300040F20247ADF8007010258DF8035069462C
:104840004046FCF741F939464046FCF794F9FF2011
:10485000ADF800008DF8036069462A48FCF734F98A
:10486000EE02294FADF800608DF8035069463846D6
:10487000FCF72AF931463846FCF77DF90A20ADF8F5
:1048800000008DF8035069463846FCF71DF90A21EF
:104890003846FCF770F90420ADF800008DF803509D
:1048A0001A4D69462846FCF70FF904212846FCF703
:1048B00062F900F0D5F88021122000F0EBF910B178
:1048C0000120BDE8F883322000F0F2FD0B2000F05B
:1048D00049F9732804D10A2000F044F9762801D060
:1048E0000220EEE70A4D05EB4400417815F814006C
:1048F00000F0D0F9641CA4B2AB2CF4D30020E0E7A4
:10490000000C01400008014000100140001401406B
:10491000249000082DE9F041054600EB420086B2E4
:1049200001EB430084B20F46B4F5447F02D9A4F5ED
:104930004474A4B2032000F015F906F003022946DE
:1049400000F0F00062F39F010143032000F0A2F9A0
:10495000C5F38701192000F09DF9C6F387011A20DD
:1049600000F098F9322000F0FDF8C7F3C7011720D6
:1049700000F090F9C4F3C701BDE8F041182000F041
:1049800089B97047044A0029516901D0014300E008
:10499000814351617047000000100240044A002921
:1049A000D16901D0014300E08143D161704700002B
:1049B00000100240044A0029916901D0014300E03F
:1049C00081439161704700000010024030B5204AD9
:1049D0005168204B11F00C0103D0042901D00829A3
:1049E00001D0036012E05168536801F470114FF078
:1049F000020413F4803F04EB914102D053689B03FF
:104A000001D5154B00E0134B5943016051680F234A
:104A100003EA1111114B5C5C0168E140416054688C
:104A2000072505EA14241C5D21FA04F48460546807
:104A300005EAD4241B5DD940C1605268032303EA10
:104A40009232064B1B1F9A5CB1FBF2F1016130BD43
:104A50000010024000127A0000093D0048000020CA
:104A600038B501211020FFF7A5FF0420ADF80000A4
:104A700048208DF803000320104C8DF80200694691
:104A80002046FCF721F804212046FCF774F80120A9
:104A9000ADF8000010208DF8030069462046FCF7B1
:104AA00013F801212046FCF766F8206820F47060B6
:104AB0002060206840F44070206038BD0010014044
:104AC00070B5322000F00EFD0A4C0120C4F88801B8
:104AD000C4F88001322004F5C07400F003FD002505
:104AE0002560322000F0FEFCA560BDE87040322059
:104AF00000F0F8BC000022422DE9F047174F0024D7
:104B0000386820F470603860386840F400603860BD
:104B1000134E08254FF00108A146322000F0E2FCB8
:104B2000C6F880816006040ED6F8080108B1641C3E
:104B3000E4B2322000F0D6FCC6F880916D1E15F06C
:104B4000FF05EAD1386820F470603860386840F4B6
:104B5000407038602046BDE8F0870000001001403A
:104B60000000224210B5044600F022F8422000F076
:104B70004DF8642000F0B6FC204600F047F86420B1
:104B800000F0B0FC00F02AF8642000F0ABFC00F06C
:104B90000FF8432000F03AF8642000F0A3FCFFF780
:104BA000ABFF0446FFF78CFF00F018F8204610BD5D
:104BB00070B5094C0120C4F88801C4F88001322086
:104BC00004F5C07400F08EFC0025A560322000F0D2
:104BD00089FC256070BD00000000224270B50A4CBF
:104BE0000020C4F88801322004F5C07400F07AFC7B
:104BF00001252560322000F075FCA560BDE87040FD
:104C0000322000F06FBC0000000022422DE9F0418C
:104C100000241E4E0546A0460127280602D5C6F8E8
:104C2000887101E0C6F888816806050E322000F020
:104C300059FCC6F88071322000F054FCC6F880811F
:104C4000641CE4B2082CE8D3114C206820F4706096
:104C50002060206840F400602060322000F042FCB8
:104C6000C6F88071322000F03DFCD6F8080100B192
:104C70000120C6F88081216821F4706121602168DB
:104C800041F440712160BDE8F08100000000224243
:104C90000010014070B50D4606460024FFF788FF5E
:104CA0004220FFF7B3FF00B10124642000F01AFC9A
:104CB0003046FFF7ABFF00B10124642000F012FC86
:104CC0002846FFF7A3FF00B10124FFF787FF204626
:104CD00070BD70470CB50022264800920192016811
:104CE00041F4803101604FF4A063016801F40031A8
:104CF00001910099491C0091019911B900999942BB
:104D0000F3D10168890333D5012101911A490A6859
:104D100042F010020A600A6822F003020A600A6880
:104D200042F002020A6041684160416841604168A6
:104D300041F480614160416821F47C114160416827
:104D400041F4E8114160016841F08071016001683F
:104D50008901FCD5416821F003014160416841F0BF
:104D6000020141604168C1F381010229FAD10CBD01
:104D700001920CBD00100240002002404FF0E021E3
:104D80000428086903D020F004000861704740F04F
:104D90000400FAE7704700000F4810B5016841F0C1
:104DA0000101016041680D4A1140416001680C4AEF
:104DB00011400160016821F480210160416821F403
:104DC000FE0141604FF41F018160FFF783FF054939
:104DD0004FF00060086010BD001002400000FFF8B6
:104DE000FFFFF6FE08ED00E010B50E4C0121204655
:104DF00000F0EBF8002812D00121204600F0CDF899
:104E00000949D1F8940158B10020C1F8940107492B
:104E10000868401C0860642801D30020086010BDA9
:104E20000120F2E7000400400000234200000020BF
:104E30007FB50D46044601210220FFF7AFFDADF816
:104E40000440ADF800500024104DADF80640ADF818
:104E500002406946284600F0D7F801224121284641
:104E600000F0BFF81D218DF80C108DF80D400320C7
:104E70008DF80E0001208DF80F0003A8FFF7FCFA53
:104E80000121284600F08CF87FBD0000000400409E
:104E900010B50C4C0121204600F097F801280AD1EA
:104EA0000948016988470021204600F0AAF86421DA
:104EB000204600F0A4F82046BDE81040012100F093
:104EC0006CB8000000080040AC00002070B51F4C1A
:104ED0001F4D2078000633D40121284600F075F8D4
:104EE00038B12178480604D5C843800612D0491C41
:104EF00021700221284600F068F808B3217848069E
:104F00000FD541F080002070284600F053F86080F3
:104F1000002112E041F0800020704FF6FF706080A9
:104F2000E7E70020207060800146284600F069F81D
:104F30002078022140F040002070284600F059F807
:104F40002846BDE87040032100F027B82400002067
:104F5000000C004070B5094D0121284600F035F8DD
:104F600030B1074C07A06178FBF780F90020607032
:104F70002846BDE87040012100F00FB80010004045
:104F8000240000206672616D653A25646670730DB9
:104F90000A000000C94301827047C943018270477B
:104FA0000029018802D041F0010101E021F0010156
:104FB00001807047808E7047808C704702460020C9
:104FC000128A0A4200D00120704702460020138A4C
:104FD00092890B4202EA010202D0002A00D001208D
:104FE0007047002A828901D00A4300E08A43828107
:104FF0007047028C22F002020A43028470478185C6
:10500000704781847047000030B502881B4C1C4DEE
:10501000A0420DD0A8420BD0B0F1804F08D0194B60
:10502000984205D0184B984202D0184B984203D1B1
:1050300022F070034A881A43154B984206D0154B4C
:10504000984203D022F44073CA881A4302808A88A7
:1050500082850A880285A0420AD0A84208D00E4A5A
:10506000904205D00D4A904202D00D4A904201D1A3
:10507000097A01860121818230BD0000002C0140A7
:10508000003401400004004000080040000C0040D3
:105090000010004000140040004001400044014066
:1050A000004801407FB50D46044601210420FFF76A
:1050B00075FCADF804400020ADF80050104CADF880
:1050C0000600ADF8020069462046FFF79DFF012269
:1050D00041212046FFF785FF1E218DF80C1003218A
:1050E0008DF80D108DF80E1001208DF80F0003A81B
:1050F000FFF7C2F901212046FFF752FF7FBD0000F4
:105100000008004070B5154C40F22551204600F0D3
:1051100035F800280ED0204600F0BEF8104AC1B283
:105120001088030406D444044FF0000306D50A296E
:1051300001D0138070BD40F400400DE00D2909D06E
:10514000C0F30D04074D401C80B229551080C728BC
:10515000EFD870BD40F48040108070BD0038014031
:105160003E0000207E2B00200029818902D041F4DE
:10517000005101E021F400518181704770B501F0C8
:105180001F0501260024C1F3421306FA05F2012B84
:105190000FD0022B0FD0838A4FEA112100881342CF
:1051A00006FA01F600EA060001D000B1012420460B
:1051B00070BD8389F0E7038AEEE710B5C1F34213AF
:1051C00001F01F040121A140012B07D0022B07D0C1
:1051D0001430002A026805D00A4304E00C30F8E7D6
:1051E0001030F6E78A43026010BD000030B5044677
:1051F000008A85B00D464CF6FF710840E9880143EE
:105200002182A0894EF6F3110840A9882A8911430A
:105210006A8902431143A181A08A4FF6FF410840E9
:10522000A9890143A1826846FFF7D0FB194884424F
:1052300001D1039800E00298A189090400EBC001A4
:1052400001EB0010296801D5490000E08900B0FB9E
:10525000F1F06422B0FBF2F109010B096FF01805BF
:105260006B4300EB8300A3891D044FF0320306D586
:1052700003EBC000B0FBF2F000F0070005E003EB29
:105280000010B0FBF2F000F00F000843208105B0E1
:1052900030BD0000003801408088C0F3080070472E
:1052A000FEE730380A2801D20120704700207047FD
:1052B0007047000008B500F02FF804201149009055
:1052C0004F230022A1F1140000F04AFA00F0F8FB8D
:1052D000C0B20A280FD00B480B4B0C4A0C491430B3
:1052E00000F044FDC0B20C2803D100F0A7F9094931
:1052F000086000F01DF900F009FDBDE8084000F06D
:10530000E3BC0000422700203800002030000020CD
:1053100029000020040000202DE9F05FDFF8F8B03C
:1053200000249BF80000002873D00020FEF7A2FDA7
:105330006421502378220846FEF714FFFFF760F837
:10534000364AA146C2F88491354B022119601D1FCF
:10535000296019600120C2F884012960314EDFF80C
:10536000C8C04FF4A07A4FF6FF770020196032686A
:10537000296007EA02221960D6F80080296008F047
:10538000FF0848EA020808F47F425FEAC4781ED1A9
:105390005FEA80781BD1DFF89480120A98F80080C9
:1053A00042450BD98208C2EB02120CEBC20202EB9F
:1053B00054024FF0FF0882F8008008E08208C2EB38
:1053C00002120CEBC20202EB540282F80090401C65
:1053D0005045CBD3641CF02CC7D315488BF80090F4
:1053E000144C0178491C01700021C1EB011200200E
:1053F0000CEBC2031A5CFF2A01D012B103E0278034
:1054000001E000222280401C7828F3D3491C502957
:10541000EBD3BDE8F09F00002200002000002242F4
:10542000140C014008080140AE01002028000020B3
:10543000250000200008006C10B50020FBF7D0FB11
:1054400000280CD00A4901280AD0022807D1087880
:10545000C01EC0B208700F2801D8E020087010BD2F
:105460000878C01CC0B20870E028F8D30F20F5E718
:105470002800002010B56FF00400FFF77FFC0948FA
:1054800009490068B0FBF1F00849C0B200EB4002E6
:105490000870C2EBC0104FF6FF7202EAC0004880ED
:1054A00010BD00000800002000127A003A00002021
:1054B0000B49498848434FF0E021486100238B6144
:1054C000086940F0010008610869C20701D0C00303
:1054D000FAD5086920F0010008618B61704700006F
:1054E0003A0000200B49097848434FF0E021486119
:1054F00000238B61086940F0010008610869C20758
:1055000001D0C003FAD5086920F0010008618B6161
:10551000704700003A00002004490A885206FCD572
:10552000024AC1B2121D11807047000000380140CC
:1055300010B5324800F04CF9C0B2172814D004DC82
:105540000A2807D0162857D109E0182816D019289C
:1055500052D10EE02AA0FAF789FE0A2010BD2BA036
:10556000FAF784FE162010BD2BA0FAF77FFE172055
:1055700010BD2CA0FAF77AFE192010BD1F4C2CA0EC
:10558000241F6168FAF772FE60680A2801D81A20A1
:1055900010BD00F10A010A2901D81B2010BDA0F19D
:1055A0000B01092901D81C2010BD00F114010A29A2
:1055B00001D21D2010BDA0F11501092901D81E201E
:1055C00010BD00F11E010A2901D21F2010BDA0F15B
:1055D0001F01092901D8202010BD00F128010A2946
:1055E00001D2212010BD282801DD222010BD10F19C
:1055F000280F01DA232010BD152010BD2C0000203B
:10560000426F7468206C6F7374000000544F4F2019
:105610004C45465400000000544F4F205249474823
:10562000540000004E4F204D4944204C4F43000091
:105630004445563A20256420000000002DE9F05F23
:10564000464C00223F4FD4E900013F4EDFF8FC807A
:10565000DFF8FC90DFF8FCA0DFF8FCB04FF0663517
:10566000134601F0D3FF09D2D4E9000100223B46E2
:1056700001F092FE02D80D20BDE8F09FD4E90001B0
:105680000022134601F088FE08D2D4E9000100226E
:10569000334601F0BBFF01D81120EDE7D4E900014A
:1056A00000223B4601F0B2FF08D2D4E900012A46AD
:1056B000434601F071FE01D80E20DDE7D4E9000178
:1056C0000022334601F068FE08D2D4E900012A46E0
:1056D0004B4601F09BFF01D81220CDE7D4E9000131
:1056E0002A46434601F092FF08D2D4E900012A4637
:1056F000534601F051FE01D80F20BDE7D4E9000167
:105700002A464B4601F048FE08D2D4E900012A4659
:105710005B4601F07BFF01D81320ADE7D4E900011F
:105720002A46534601F072FF01D21020A4E7D4E9C3
:1057300000012A465B4601F02FFE01D214209BE7B0
:10574000152099E700000440000004C066660E4082
:1057500066660EC066661C4066661CC0300000208F
:105760002DE9F047DFF864A0DDF8209029E0C2EBD6
:10577000021600246FF0FD0C0AEBC606351916F868
:1057800004806F78A8EB0708E04505DC95F80280F7
:10579000474501D1671C0F7016F804806F78A8EB9D
:1057A0000708B8F1FE0F04DBAD78AF4201D1651CEC
:1057B0000570641CA4B2752CE0D34A44401C92B21C
:1057C000491C9A42D3D3BDE8F0870000AE01002007
:1057D0002DE9F0479AB00546142103A8FAF7F0FE28
:1057E000142108A8FAF7ECFE4FF0000844468DF8A3
:1057F00060808DF8648014210DA8FAF7E1FE142171
:1058000012A8FAF7DDFE8DF85C4000210C465048E6
:1058100003E0491CC9B2142902D2425C002AF8D024
:10582000142901D0092200E0072249481430142C21
:1058300004D2035D23B9641CE4B2F8E7142C08D049
:10584000092050276FF04F06072A04D0092A0BD0F1
:105850000CE00820F5E7082802D009281ED005E052
:105860000A201AB0BDE8F08708281ED00DF1340ACE
:1058700018AB03AA3648CDF800A000F0A1F83448D0
:105880000DF1480919AB08AA21461430CDF8009053
:1058900000F096F89DF86020022A02D816202E60AB
:1058A000DFE79DF86430022B02D817202F60D8E77D
:1058B00017A8CDF800A0CDE901904C46564608A99E
:1058C00003A800F047F8C0B2252801D0002008E066
:1058D0002520C5F80080C4E7315C092907D0401CA9
:1058E000C0B29DF860108842F6D3002017E09DF802
:1058F00015109DF85C0001EB50023B2A05D96FF0B2
:105900003A0202EB500008441FE0C1F13B01A1EB59
:10591000500019E0215C092907D0401CC0B29DF855
:1059200064108842F6D319209BE79DF829109DF852
:105930005C0001EB50023B2A03D9A1EB50003B383D
:1059400003E0C1EB50003B3040422860182088E75C
:105950002E270020F0B5184DDDE90674059E9A4209
:1059600010D80021154B0AE0775CDF5D2FB1725C27
:10597000405C9A5C10E0404210E0491CC9B2914280
:10598000F2D313E00D4A0020143A0DE03E5C965D20
:1059900046B13B5C085CD25C101AECD42070A87055
:1059A0002420F0BD401CC0B29842EFD300202070EC
:1059B000A8702520F0BD000028000020422700200C
:1059C0002DE9F04F8BB00C4606461F469046002549
:1059D00014216846DDF85090FAF7F2FD142105A86D
:1059E000FAF7EEFDEA460DF1140B13E03019827858
:1059F00012B3315D69B1407858B10B1A801A181A88
:105A0000C01C062805D80AF805100BF805406D1CC7
:105A1000EDB2641C122CE9DB3878A84245D23D7007
:105A200014214846FAF7AAFD14214046FAF7A6FDCC
:105A3000002052465B4636E03878A84217D23D70C7
:105A400014214046FAF79AFD14214846FAF796FDCC
:105A5000002051465B4608E011F800C008F800C07D
:105A600013F800C009F800C0401CA842F4DD14215E
:105A70006846FAF7A5FD142105A8FAF7A1FD00254F
:105A8000E01C142802DAE41C00E0641C122CC0DACA
:105A9000305D0028F9D0BCE7145C08F800401C5CBD
:105AA00009F80040401CA842F6DD14216846FAF7C8
:105AB00087FD142105A8FAF783FD0BB0BDE8F08F30
:105AC000F8B500210C46294803E0491CC9B2142945
:105AD00002D2425C002AF8D0142901D0092000E04B
